{
	"data": {
		"bytecode": {
			"linkReferences": {},
			"object": "608060405234801561001057600080fd5b506101ac806100206000396000f3fe6080604052600436106100345760003560e01c8063859cc8a314610039578063b2cb19a614610057578063c9ff32df14610075575b600080fd5b610041610093565b60405161004e91906100f1565b60405180910390f35b61005f6100a2565b60405161006c91906100f1565b60405180910390f35b61007d6100c0565b60405161008a91906100f1565b60405180910390f35b600061009d610093565b905090565b6000633b9aca006100b16100a2565b6100bb919061010c565b905090565b6000670de0b6b3a76400006100d36100c0565b6100dd919061010c565b905090565b6100eb8161013d565b82525050565b600060208201905061010660008301846100e2565b92915050565b60006101178261013d565b91506101228361013d565b92508261013257610131610147565b5b828204905092915050565b6000819050919050565b7f4e487b7100000000000000000000000000000000000000000000000000000000600052601260045260246000fdfea264697066735822122069dff390e25ea7d301bb18c445a9b7e89dd9b0aea18e65671798017283008a1c64736f6c63430008000033",
			"opcodes": "PUSH1 0x80 PUSH1 0x40 MSTORE CALLVALUE DUP1 ISZERO PUSH2 0x10 JUMPI PUSH1 0x0 DUP1 REVERT JUMPDEST POP PUSH2 0x1AC DUP1 PUSH2 0x20 PUSH1 0x0 CODECOPY PUSH1 0x0 RETURN INVALID PUSH1 0x80 PUSH1 0x40 MSTORE PUSH1 0x4 CALLDATASIZE LT PUSH2 0x34 JUMPI PUSH1 0x0 CALLDATALOAD PUSH1 0xE0 SHR DUP1 PUSH4 0x859CC8A3 EQ PUSH2 0x39 JUMPI DUP1 PUSH4 0xB2CB19A6 EQ PUSH2 0x57 JUMPI DUP1 PUSH4 0xC9FF32DF EQ PUSH2 0x75 JUMPI JUMPDEST PUSH1 0x0 DUP1 REVERT JUMPDEST PUSH2 0x41 PUSH2 0x93 JUMP JUMPDEST PUSH1 0x40 MLOAD PUSH2 0x4E SWAP2 SWAP1 PUSH2 0xF1 JUMP JUMPDEST PUSH1 0x40 MLOAD DUP1 SWAP2 SUB SWAP1 RETURN JUMPDEST PUSH2 0x5F PUSH2 0xA2 JUMP JUMPDEST PUSH1 0x40 MLOAD PUSH2 0x6C SWAP2 SWAP1 PUSH2 0xF1 JUMP JUMPDEST PUSH1 0x40 MLOAD DUP1 SWAP2 SUB SWAP1 RETURN JUMPDEST PUSH2 0x7D PUSH2 0xC0 JUMP JUMPDEST PUSH1 0x40 MLOAD PUSH2 0x8A SWAP2 SWAP1 PUSH2 0xF1 JUMP JUMPDEST PUSH1 0x40 MLOAD DUP1 SWAP2 SUB SWAP1 RETURN JUMPDEST PUSH1 0x0 PUSH2 0x9D PUSH2 0x93 JUMP JUMPDEST SWAP1 POP SWAP1 JUMP JUMPDEST PUSH1 0x0 PUSH4 0x3B9ACA00 PUSH2 0xB1 PUSH2 0xA2 JUMP JUMPDEST PUSH2 0xBB SWAP2 SWAP1 PUSH2 0x10C JUMP JUMPDEST SWAP1 POP SWAP1 JUMP JUMPDEST PUSH1 0x0 PUSH8 0xDE0B6B3A7640000 PUSH2 0xD3 PUSH2 0xC0 JUMP JUMPDEST PUSH2 0xDD SWAP2 SWAP1 PUSH2 0x10C JUMP JUMPDEST SWAP1 POP SWAP1 JUMP JUMPDEST PUSH2 0xEB DUP2 PUSH2 0x13D JUMP JUMPDEST DUP3 MSTORE POP POP JUMP JUMPDEST PUSH1 0x0 PUSH1 0x20 DUP3 ADD SWAP1 POP PUSH2 0x106 PUSH1 0x0 DUP4 ADD DUP5 PUSH2 0xE2 JUMP JUMPDEST SWAP3 SWAP2 POP POP JUMP JUMPDEST PUSH1 0x0 PUSH2 0x117 DUP3 PUSH2 0x13D JUMP JUMPDEST SWAP2 POP PUSH2 0x122 DUP4 PUSH2 0x13D JUMP JUMPDEST SWAP3 POP DUP3 PUSH2 0x132 JUMPI PUSH2 0x131 PUSH2 0x147 JUMP JUMPDEST JUMPDEST DUP3 DUP3 DIV SWAP1 POP SWAP3 SWAP2 POP POP JUMP JUMPDEST PUSH1 0x0 DUP2 SWAP1 POP SWAP2 SWAP1 POP JUMP JUMPDEST PUSH32 0x4E487B7100000000000000000000000000000000000000000000000000000000 PUSH1 0x0 MSTORE PUSH1 0x12 PUSH1 0x4 MSTORE PUSH1 0x24 PUSH1 0x0 REVERT INVALID LOG2 PUSH5 0x6970667358 0x22 SLT KECCAK256 PUSH10 0xDFF390E25EA7D301BB18 0xC4 GASLIMIT 0xA9 0xB7 0xE8 SWAP14 0xD9 0xB0 0xAE LOG1 DUP15 PUSH6 0x671798017283 STOP DUP11 SHR PUSH5 0x736F6C6343 STOP ADDMOD STOP STOP CALLER "
		},
		"gasEstimates": {
			"creation": {
				"codeDepositCost": "85600",
				"executionCost": "135",
				"totalCost": "85735"
			},
			"external": {
				"valueInEther()": "infinite",
				"valueInGwei()": "infinite",
				"valueInWei()": "infinite"
			}
		},
		"methodIdentifiers": {
			"valueInEther()": "c9ff32df",
			"valueInGwei()": "b2cb19a6",
			"valueInWei()": "859cc8a3"
		}
	},
	"abi": [
		{
			"inputs": [],
			"name": "valueInEther",
			"outputs": [
				{
					"internalType": "uint256",
					"name": "",
					"type": "uint256"
				}
			],
			"stateMutability": "payable",
			"type": "function"
		},
		{
			"inputs": [],
			"name": "valueInGwei",
			"outputs": [
				{
					"internalType": "uint256",
					"name": "",
					"type": "uint256"
				}
			],
			"stateMutability": "payable",
			"type": "function"
		},
		{
			"inputs": [],
			"name": "valueInWei",
			"outputs": [
				{
					"internalType": "uint256",
					"name": "",
					"type": "uint256"
				}
			],
			"stateMutability": "payable",
			"type": "function"
		}
	]
}